{
  "contractName": "EngraveNFT1155",
  "abi": [
    {
      "inputs": [],
      "stateMutability": "nonpayable",
      "type": "constructor"
    },
    {
      "anonymous": false,
      "inputs": [
        {
          "indexed": true,
          "internalType": "address",
          "name": "account",
          "type": "address"
        },
        {
          "indexed": true,
          "internalType": "address",
          "name": "operator",
          "type": "address"
        },
        {
          "indexed": false,
          "internalType": "bool",
          "name": "approved",
          "type": "bool"
        }
      ],
      "name": "ApprovalForAll",
      "type": "event"
    },
    {
      "anonymous": false,
      "inputs": [
        {
          "indexed": false,
          "internalType": "uint256",
          "name": "packId",
          "type": "uint256"
        }
      ],
      "name": "NewPack",
      "type": "event"
    },
    {
      "anonymous": false,
      "inputs": [
        {
          "indexed": false,
          "internalType": "uint256",
          "name": "relationshipId",
          "type": "uint256"
        },
        {
          "indexed": false,
          "internalType": "uint256",
          "name": "packId",
          "type": "uint256"
        },
        {
          "indexed": false,
          "internalType": "address",
          "name": "reciever",
          "type": "address"
        }
      ],
      "name": "NewRelationship",
      "type": "event"
    },
    {
      "anonymous": false,
      "inputs": [
        {
          "indexed": true,
          "internalType": "address",
          "name": "operator",
          "type": "address"
        },
        {
          "indexed": true,
          "internalType": "address",
          "name": "from",
          "type": "address"
        },
        {
          "indexed": true,
          "internalType": "address",
          "name": "to",
          "type": "address"
        },
        {
          "indexed": false,
          "internalType": "uint256[]",
          "name": "ids",
          "type": "uint256[]"
        },
        {
          "indexed": false,
          "internalType": "uint256[]",
          "name": "values",
          "type": "uint256[]"
        }
      ],
      "name": "TransferBatch",
      "type": "event"
    },
    {
      "anonymous": false,
      "inputs": [
        {
          "indexed": true,
          "internalType": "address",
          "name": "operator",
          "type": "address"
        },
        {
          "indexed": true,
          "internalType": "address",
          "name": "from",
          "type": "address"
        },
        {
          "indexed": true,
          "internalType": "address",
          "name": "to",
          "type": "address"
        },
        {
          "indexed": false,
          "internalType": "uint256",
          "name": "id",
          "type": "uint256"
        },
        {
          "indexed": false,
          "internalType": "uint256",
          "name": "value",
          "type": "uint256"
        }
      ],
      "name": "TransferSingle",
      "type": "event"
    },
    {
      "anonymous": false,
      "inputs": [
        {
          "indexed": false,
          "internalType": "string",
          "name": "value",
          "type": "string"
        },
        {
          "indexed": true,
          "internalType": "uint256",
          "name": "id",
          "type": "uint256"
        }
      ],
      "name": "URI",
      "type": "event"
    },
    {
      "inputs": [
        {
          "internalType": "address",
          "name": "",
          "type": "address"
        },
        {
          "internalType": "uint256",
          "name": "",
          "type": "uint256"
        }
      ],
      "name": "OwnerPackIds",
      "outputs": [
        {
          "internalType": "string",
          "name": "name_",
          "type": "string"
        },
        {
          "internalType": "address",
          "name": "owner",
          "type": "address"
        },
        {
          "internalType": "uint256",
          "name": "_packId",
          "type": "uint256"
        },
        {
          "internalType": "bool",
          "name": "active",
          "type": "bool"
        }
      ],
      "stateMutability": "view",
      "type": "function",
      "constant": true
    },
    {
      "inputs": [
        {
          "internalType": "address",
          "name": "",
          "type": "address"
        },
        {
          "internalType": "uint256",
          "name": "",
          "type": "uint256"
        }
      ],
      "name": "Relationships",
      "outputs": [
        {
          "internalType": "uint256",
          "name": "",
          "type": "uint256"
        }
      ],
      "stateMutability": "view",
      "type": "function",
      "constant": true
    },
    {
      "inputs": [
        {
          "internalType": "address",
          "name": "account",
          "type": "address"
        },
        {
          "internalType": "uint256",
          "name": "id",
          "type": "uint256"
        }
      ],
      "name": "balanceOf",
      "outputs": [
        {
          "internalType": "uint256",
          "name": "",
          "type": "uint256"
        }
      ],
      "stateMutability": "view",
      "type": "function",
      "constant": true
    },
    {
      "inputs": [
        {
          "internalType": "address[]",
          "name": "accounts",
          "type": "address[]"
        },
        {
          "internalType": "uint256[]",
          "name": "ids",
          "type": "uint256[]"
        }
      ],
      "name": "balanceOfBatch",
      "outputs": [
        {
          "internalType": "uint256[]",
          "name": "",
          "type": "uint256[]"
        }
      ],
      "stateMutability": "view",
      "type": "function",
      "constant": true
    },
    {
      "inputs": [
        {
          "internalType": "address",
          "name": "account",
          "type": "address"
        },
        {
          "internalType": "address",
          "name": "operator",
          "type": "address"
        }
      ],
      "name": "isApprovedForAll",
      "outputs": [
        {
          "internalType": "bool",
          "name": "",
          "type": "bool"
        }
      ],
      "stateMutability": "view",
      "type": "function",
      "constant": true
    },
    {
      "inputs": [
        {
          "internalType": "uint256",
          "name": "",
          "type": "uint256"
        }
      ],
      "name": "packs",
      "outputs": [
        {
          "internalType": "string",
          "name": "name_",
          "type": "string"
        },
        {
          "internalType": "address",
          "name": "owner",
          "type": "address"
        },
        {
          "internalType": "uint256",
          "name": "_packId",
          "type": "uint256"
        },
        {
          "internalType": "bool",
          "name": "active",
          "type": "bool"
        }
      ],
      "stateMutability": "view",
      "type": "function",
      "constant": true
    },
    {
      "inputs": [
        {
          "internalType": "address",
          "name": "from",
          "type": "address"
        },
        {
          "internalType": "address",
          "name": "to",
          "type": "address"
        },
        {
          "internalType": "uint256[]",
          "name": "ids",
          "type": "uint256[]"
        },
        {
          "internalType": "uint256[]",
          "name": "amounts",
          "type": "uint256[]"
        },
        {
          "internalType": "bytes",
          "name": "data",
          "type": "bytes"
        }
      ],
      "name": "safeBatchTransferFrom",
      "outputs": [],
      "stateMutability": "nonpayable",
      "type": "function"
    },
    {
      "inputs": [
        {
          "internalType": "address",
          "name": "operator",
          "type": "address"
        },
        {
          "internalType": "bool",
          "name": "approved",
          "type": "bool"
        }
      ],
      "name": "setApprovalForAll",
      "outputs": [],
      "stateMutability": "nonpayable",
      "type": "function"
    },
    {
      "inputs": [
        {
          "internalType": "bytes4",
          "name": "interfaceId",
          "type": "bytes4"
        }
      ],
      "name": "supportsInterface",
      "outputs": [
        {
          "internalType": "bool",
          "name": "",
          "type": "bool"
        }
      ],
      "stateMutability": "view",
      "type": "function",
      "constant": true
    },
    {
      "inputs": [
        {
          "internalType": "uint256",
          "name": "",
          "type": "uint256"
        }
      ],
      "name": "uri",
      "outputs": [
        {
          "internalType": "string",
          "name": "",
          "type": "string"
        }
      ],
      "stateMutability": "view",
      "type": "function",
      "constant": true
    },
    {
      "inputs": [
        {
          "internalType": "string",
          "name": "name_",
          "type": "string"
        }
      ],
      "name": "createPack",
      "outputs": [],
      "stateMutability": "nonpayable",
      "type": "function"
    },
    {
      "inputs": [
        {
          "internalType": "address",
          "name": "to",
          "type": "address"
        },
        {
          "internalType": "uint256",
          "name": "packId",
          "type": "uint256"
        }
      ],
      "name": "engraveToPack",
      "outputs": [],
      "stateMutability": "nonpayable",
      "type": "function"
    },
    {
      "inputs": [
        {
          "internalType": "address",
          "name": "from",
          "type": "address"
        },
        {
          "internalType": "address",
          "name": "to",
          "type": "address"
        },
        {
          "internalType": "uint256",
          "name": "id",
          "type": "uint256"
        },
        {
          "internalType": "uint256",
          "name": "amount",
          "type": "uint256"
        },
        {
          "internalType": "bytes",
          "name": "data",
          "type": "bytes"
        }
      ],
      "name": "safeTransferFrom",
      "outputs": [],
      "stateMutability": "nonpayable",
      "type": "function"
    },
    {
      "inputs": [
        {
          "internalType": "address",
          "name": "ownerAddress",
          "type": "address"
        }
      ],
      "name": "getOwnerPackIds",
      "outputs": [
        {
          "components": [
            {
              "internalType": "string",
              "name": "name_",
              "type": "string"
            },
            {
              "internalType": "address",
              "name": "owner",
              "type": "address"
            },
            {
              "internalType": "uint256",
              "name": "_packId",
              "type": "uint256"
            },
            {
              "internalType": "bool",
              "name": "active",
              "type": "bool"
            }
          ],
          "internalType": "struct EngraveNFT1155.packProperties[]",
          "name": "",
          "type": "tuple[]"
        }
      ],
      "stateMutability": "view",
      "type": "function",
      "constant": true
    }
  ],
  "bytecode": "0x60806040523480156200001157600080fd5b5060405180606001604052806035815260200162003d8f603591396200003d816200004460201b60201c565b50620003ba565b8060029081620000559190620002d3565b5050565b600081519050919050565b7f4e487b7100000000000000000000000000000000000000000000000000000000600052604160045260246000fd5b7f4e487b7100000000000000000000000000000000000000000000000000000000600052602260045260246000fd5b60006002820490506001821680620000db57607f821691505b602082108103620000f157620000f062000093565b5b50919050565b60008190508160005260206000209050919050565b60006020601f8301049050919050565b600082821b905092915050565b6000600883026200015b7fffffffffffffffffffffffffffffffffffffffffffffffffffffffffffffffff826200011c565b6200016786836200011c565b95508019841693508086168417925050509392505050565b6000819050919050565b6000819050919050565b6000620001b4620001ae620001a8846200017f565b62000189565b6200017f565b9050919050565b6000819050919050565b620001d08362000193565b620001e8620001df82620001bb565b84845462000129565b825550505050565b600090565b620001ff620001f0565b6200020c818484620001c5565b505050565b5b81811015620002345762000228600082620001f5565b60018101905062000212565b5050565b601f82111562000283576200024d81620000f7565b62000258846200010c565b8101602085101562000268578190505b6200028062000277856200010c565b83018262000211565b50505b505050565b600082821c905092915050565b6000620002a86000198460080262000288565b1980831691505092915050565b6000620002c3838362000295565b9150826002028217905092915050565b620002de8262000059565b67ffffffffffffffff811115620002fa57620002f962000064565b5b620003068254620000c2565b6200031382828562000238565b600060209050601f8311600181146200034b576000841562000336578287015190505b620003428582620002b5565b865550620003b2565b601f1984166200035b86620000f7565b60005b8281101562000385578489015182556001820191506020850194506020810190506200035e565b86831015620003a55784890151620003a1601f89168262000295565b8355505b6001600288020188555050505b505050505050565b6139c580620003ca6000396000f3fe608060405234801561001057600080fd5b50600436106100e85760003560e01c8063a22cb4651161008c578063dd18ef1311610066578063dd18ef1314610283578063e985e9c5146102b3578063f242432a146102e3578063fae02454146102ff576100e8565b8063a22cb46514610218578063a75cc8da14610234578063b84c139214610250576100e8565b80630e89341c116100c85780630e89341c146101805780632eb2c2d6146101b05780634e1273f4146101cc57806387510801146101fc576100e8565b8062928012146100ed578062fdd58e1461012057806301ffc9a714610150575b600080fd5b61010760048036038101906101029190612003565b61032f565b604051610117949392919061210c565b60405180910390f35b61013a60048036038101906101359190612003565b610431565b6040516101479190612158565b60405180910390f35b61016a600480360381019061016591906121cb565b6104f9565b60405161017791906121f8565b60405180910390f35b61019a60048036038101906101959190612213565b6105db565b6040516101a79190612240565b60405180910390f35b6101ca60048036038101906101c5919061245f565b61066f565b005b6101e660048036038101906101e191906125f1565b610710565b6040516101f39190612727565b60405180910390f35b61021660048036038101906102119190612003565b610829565b005b610232600480360381019061022d9190612775565b61099c565b005b61024e60048036038101906102499190612856565b6109b2565b005b61026a60048036038101906102659190612213565b610c90565b60405161027a949392919061210c565b60405180910390f35b61029d6004803603810190610298919061289f565b610d75565b6040516102aa9190612a59565b60405180910390f35b6102cd60048036038101906102c89190612a7b565b610f20565b6040516102da91906121f8565b60405180910390f35b6102fd60048036038101906102f89190612abb565b610fb4565b005b61031960048036038101906103149190612003565b61116d565b6040516103269190612158565b60405180910390f35b6006602052816000526040600020818154811061034b57600080fd5b90600052602060002090600402016000915091505080600001805461036f90612b81565b80601f016020809104026020016040519081016040528092919081815260200182805461039b90612b81565b80156103e85780601f106103bd576101008083540402835291602001916103e8565b820191906000526020600020905b8154815290600101906020018083116103cb57829003601f168201915b5050505050908060010160009054906101000a900473ffffffffffffffffffffffffffffffffffffffff16908060020154908060030160009054906101000a900460ff16905084565b60008073ffffffffffffffffffffffffffffffffffffffff168373ffffffffffffffffffffffffffffffffffffffff16036104a1576040517f08c379a000000000000000000000000000000000000000000000000000000000815260040161049890612c24565b60405180910390fd5b60008083815260200190815260200160002060008473ffffffffffffffffffffffffffffffffffffffff1673ffffffffffffffffffffffffffffffffffffffff16815260200190815260200160002054905092915050565b60007fd9b67a26000000000000000000000000000000000000000000000000000000007bffffffffffffffffffffffffffffffffffffffffffffffffffffffff1916827bffffffffffffffffffffffffffffffffffffffffffffffffffffffff191614806105c457507f0e89341c000000000000000000000000000000000000000000000000000000007bffffffffffffffffffffffffffffffffffffffffffffffffffffffff1916827bffffffffffffffffffffffffffffffffffffffffffffffffffffffff1916145b806105d457506105d382611192565b5b9050919050565b6060600280546105ea90612b81565b80601f016020809104026020016040519081016040528092919081815260200182805461061690612b81565b80156106635780601f1061063857610100808354040283529160200191610663565b820191906000526020600020905b81548152906001019060200180831161064657829003601f168201915b50505050509050919050565b6106776111fc565b73ffffffffffffffffffffffffffffffffffffffff168573ffffffffffffffffffffffffffffffffffffffff1614806106bd57506106bc856106b76111fc565b610f20565b5b6106fc576040517f08c379a00000000000000000000000000000000000000000000000000000000081526004016106f390612cb6565b60405180910390fd5b6107098585858585611204565b5050505050565b60608151835114610756576040517f08c379a000000000000000000000000000000000000000000000000000000000815260040161074d90612d48565b60405180910390fd5b6000835167ffffffffffffffff81111561077357610772612267565b5b6040519080825280602002602001820160405280156107a15781602001602082028036833780820191505090505b50905060005b845181101561081e576107ee8582815181106107c6576107c5612d68565b5b60200260200101518583815181106107e1576107e0612d68565b5b6020026020010151610431565b82828151811061080157610800612d68565b5b6020026020010181815250508061081790612dc6565b90506107a7565b508091505092915050565b3373ffffffffffffffffffffffffffffffffffffffff166005600083815260200190815260200160002060010160009054906101000a900473ffffffffffffffffffffffffffffffffffffffff1673ffffffffffffffffffffffffffffffffffffffff16146108cd576040517f08c379a00000000000000000000000000000000000000000000000000000000081526004016108c490612e5a565b60405180910390fd5b60006108d96003611525565b90506000600760008573ffffffffffffffffffffffffffffffffffffffff1673ffffffffffffffffffffffffffffffffffffffff168152602001908152602001600020905082816000848152602001908152602001600020819055506109518483600160405180602001604052806000815250611533565b61095b60036116e3565b7f2882c0af6a4773b11912e8e8e15b205af10b303b5ce961f8054236fbf0800d7182848660405161098e93929190612e7a565b60405180910390a150505050565b6109ae6109a76111fc565b83836116f9565b5050565b6000600560006109c26004611525565b815260200190815260200160002090506109dc6004611525565b816002018190555060018160030160006101000a81548160ff021916908315150217905550338160010160006101000a81548173ffffffffffffffffffffffffffffffffffffffff021916908373ffffffffffffffffffffffffffffffffffffffff16021790555081816000019081610a55919061305d565b508060056000610a656004611525565b815260200190815260200160002060008201816000019081610a879190613145565b506001820160009054906101000a900473ffffffffffffffffffffffffffffffffffffffff168160010160006101000a81548173ffffffffffffffffffffffffffffffffffffffff021916908373ffffffffffffffffffffffffffffffffffffffff160217905550600282015481600201556003820160009054906101000a900460ff168160030160006101000a81548160ff021916908315150217905550905050600660003373ffffffffffffffffffffffffffffffffffffffff1673ffffffffffffffffffffffffffffffffffffffff16815260200190815260200160002081908060018154018082558091505060019003906000526020600020906004020160009091909190915060008201816000019081610ba69190613145565b506001820160009054906101000a900473ffffffffffffffffffffffffffffffffffffffff168160010160006101000a81548173ffffffffffffffffffffffffffffffffffffffff021916908373ffffffffffffffffffffffffffffffffffffffff160217905550600282015481600201556003820160009054906101000a900460ff168160030160006101000a81548160ff0219169083151502179055505050610c5160046116e3565b7f987bc32e49be62d74d6cd8a0aa42444b9326cf85613f1ad9ebfe19cb574d6c218160020154604051610c849190612158565b60405180910390a15050565b6005602052806000526040600020600091509050806000018054610cb390612b81565b80601f0160208091040260200160405190810160405280929190818152602001828054610cdf90612b81565b8015610d2c5780601f10610d0157610100808354040283529160200191610d2c565b820191906000526020600020905b815481529060010190602001808311610d0f57829003601f168201915b5050505050908060010160009054906101000a900473ffffffffffffffffffffffffffffffffffffffff16908060020154908060030160009054906101000a900460ff16905084565b6060600660008373ffffffffffffffffffffffffffffffffffffffff1673ffffffffffffffffffffffffffffffffffffffff168152602001908152602001600020805480602002602001604051908101604052809291908181526020016000905b82821015610f155783829060005260206000209060040201604051806080016040529081600082018054610e0990612b81565b80601f0160208091040260200160405190810160405280929190818152602001828054610e3590612b81565b8015610e825780601f10610e5757610100808354040283529160200191610e82565b820191906000526020600020905b815481529060010190602001808311610e6557829003601f168201915b505050505081526020016001820160009054906101000a900473ffffffffffffffffffffffffffffffffffffffff1673ffffffffffffffffffffffffffffffffffffffff1673ffffffffffffffffffffffffffffffffffffffff168152602001600282015481526020016003820160009054906101000a900460ff16151515158152505081526020019060010190610dd6565b505050509050919050565b6000600160008473ffffffffffffffffffffffffffffffffffffffff1673ffffffffffffffffffffffffffffffffffffffff16815260200190815260200160002060008373ffffffffffffffffffffffffffffffffffffffff1673ffffffffffffffffffffffffffffffffffffffff16815260200190815260200160002060009054906101000a900460ff16905092915050565b6000600760008773ffffffffffffffffffffffffffffffffffffffff1673ffffffffffffffffffffffffffffffffffffffff16815260200190815260200160002060008581526020019081526020016000205490503373ffffffffffffffffffffffffffffffffffffffff166005600083815260200190815260200160002060010160009054906101000a900473ffffffffffffffffffffffffffffffffffffffff1673ffffffffffffffffffffffffffffffffffffffff16146110ad576040517f08c379a00000000000000000000000000000000000000000000000000000000081526004016110a4906132c5565b60405180910390fd5b80600760008773ffffffffffffffffffffffffffffffffffffffff1673ffffffffffffffffffffffffffffffffffffffff1681526020019081526020016000206000868152602001908152602001600020819055506000600760008873ffffffffffffffffffffffffffffffffffffffff1673ffffffffffffffffffffffffffffffffffffffff1681526020019081526020016000206000868152602001908152602001600020819055506111658686868686611865565b505050505050565b6007602052816000526040600020602052806000526040600020600091509150505481565b60007f01ffc9a7000000000000000000000000000000000000000000000000000000007bffffffffffffffffffffffffffffffffffffffffffffffffffffffff1916827bffffffffffffffffffffffffffffffffffffffffffffffffffffffff1916149050919050565b600033905090565b8151835114611248576040517f08c379a000000000000000000000000000000000000000000000000000000000815260040161123f90613357565b60405180910390fd5b600073ffffffffffffffffffffffffffffffffffffffff168473ffffffffffffffffffffffffffffffffffffffff16036112b7576040517f08c379a00000000000000000000000000000000000000000000000000000000081526004016112ae906133e9565b60405180910390fd5b60006112c16111fc565b90506112d1818787878787611b00565b60005b84518110156114825760008582815181106112f2576112f1612d68565b5b60200260200101519050600085838151811061131157611310612d68565b5b60200260200101519050600080600084815260200190815260200160002060008b73ffffffffffffffffffffffffffffffffffffffff1673ffffffffffffffffffffffffffffffffffffffff168152602001908152602001600020549050818110156113b2576040517f08c379a00000000000000000000000000000000000000000000000000000000081526004016113a99061347b565b60405180910390fd5b81810360008085815260200190815260200160002060008c73ffffffffffffffffffffffffffffffffffffffff1673ffffffffffffffffffffffffffffffffffffffff168152602001908152602001600020819055508160008085815260200190815260200160002060008b73ffffffffffffffffffffffffffffffffffffffff1673ffffffffffffffffffffffffffffffffffffffff1681526020019081526020016000206000828254611467919061349b565b925050819055505050508061147b90612dc6565b90506112d4565b508473ffffffffffffffffffffffffffffffffffffffff168673ffffffffffffffffffffffffffffffffffffffff168273ffffffffffffffffffffffffffffffffffffffff167f4a39dc06d4c0dbc64b70af90fd698a233a518aa5d07e595d983b8c0526c8f7fb87876040516114f99291906134cf565b60405180910390a461150f818787878787611b08565b61151d818787878787611b10565b505050505050565b600081600001549050919050565b600073ffffffffffffffffffffffffffffffffffffffff168473ffffffffffffffffffffffffffffffffffffffff16036115a2576040517f08c379a000000000000000000000000000000000000000000000000000000000815260040161159990613578565b60405180910390fd5b60006115ac6111fc565b905060006115b985611ce7565b905060006115c685611ce7565b90506115d783600089858589611b00565b8460008088815260200190815260200160002060008973ffffffffffffffffffffffffffffffffffffffff1673ffffffffffffffffffffffffffffffffffffffff1681526020019081526020016000206000828254611636919061349b565b925050819055508673ffffffffffffffffffffffffffffffffffffffff16600073ffffffffffffffffffffffffffffffffffffffff168473ffffffffffffffffffffffffffffffffffffffff167fc3d58168c5ae7397731d063d5bbf3d657854427343f4c083240f7aacaa2d0f6289896040516116b4929190613598565b60405180910390a46116cb83600089858589611b08565b6116da83600089898989611d61565b50505050505050565b6001816000016000828254019250508190555050565b8173ffffffffffffffffffffffffffffffffffffffff168373ffffffffffffffffffffffffffffffffffffffff1603611767576040517f08c379a000000000000000000000000000000000000000000000000000000000815260040161175e90613633565b60405180910390fd5b80600160008573ffffffffffffffffffffffffffffffffffffffff1673ffffffffffffffffffffffffffffffffffffffff16815260200190815260200160002060008473ffffffffffffffffffffffffffffffffffffffff1673ffffffffffffffffffffffffffffffffffffffff16815260200190815260200160002060006101000a81548160ff0219169083151502179055508173ffffffffffffffffffffffffffffffffffffffff168373ffffffffffffffffffffffffffffffffffffffff167f17307eab39ab6107e8899845ad3d59bd9653f200f220920489ca2b5937696c318360405161185891906121f8565b60405180910390a3505050565b600073ffffffffffffffffffffffffffffffffffffffff168473ffffffffffffffffffffffffffffffffffffffff16036118d4576040517f08c379a00000000000000000000000000000000000000000000000000000000081526004016118cb906133e9565b60405180910390fd5b60006118de6111fc565b905060006118eb85611ce7565b905060006118f885611ce7565b9050611908838989858589611b00565b600080600088815260200190815260200160002060008a73ffffffffffffffffffffffffffffffffffffffff1673ffffffffffffffffffffffffffffffffffffffff1681526020019081526020016000205490508581101561199f576040517f08c379a00000000000000000000000000000000000000000000000000000000081526004016119969061347b565b60405180910390fd5b85810360008089815260200190815260200160002060008b73ffffffffffffffffffffffffffffffffffffffff1673ffffffffffffffffffffffffffffffffffffffff168152602001908152602001600020819055508560008089815260200190815260200160002060008a73ffffffffffffffffffffffffffffffffffffffff1673ffffffffffffffffffffffffffffffffffffffff1681526020019081526020016000206000828254611a54919061349b565b925050819055508773ffffffffffffffffffffffffffffffffffffffff168973ffffffffffffffffffffffffffffffffffffffff168573ffffffffffffffffffffffffffffffffffffffff167fc3d58168c5ae7397731d063d5bbf3d657854427343f4c083240f7aacaa2d0f628a8a604051611ad1929190613598565b60405180910390a4611ae7848a8a86868a611b08565b611af5848a8a8a8a8a611d61565b505050505050505050565b505050505050565b505050505050565b611b2f8473ffffffffffffffffffffffffffffffffffffffff16611f38565b15611cdf578373ffffffffffffffffffffffffffffffffffffffff1663bc197c8187878686866040518663ffffffff1660e01b8152600401611b759594939291906136a8565b6020604051808303816000875af1925050508015611bb157506040513d601f19601f82011682018060405250810190611bae9190613725565b60015b611c5657611bbd61375f565b806308c379a003611c195750611bd1613781565b80611bdc5750611c1b565b806040517f08c379a0000000000000000000000000000000000000000000000000000000008152600401611c109190612240565b60405180910390fd5b505b6040517f08c379a0000000000000000000000000000000000000000000000000000000008152600401611c4d90613883565b60405180910390fd5b63bc197c8160e01b7bffffffffffffffffffffffffffffffffffffffffffffffffffffffff1916817bffffffffffffffffffffffffffffffffffffffffffffffffffffffff191614611cdd576040517f08c379a0000000000000000000000000000000000000000000000000000000008152600401611cd490613915565b60405180910390fd5b505b505050505050565b60606000600167ffffffffffffffff811115611d0657611d05612267565b5b604051908082528060200260200182016040528015611d345781602001602082028036833780820191505090505b5090508281600081518110611d4c57611d4b612d68565b5b60200260200101818152505080915050919050565b611d808473ffffffffffffffffffffffffffffffffffffffff16611f38565b15611f30578373ffffffffffffffffffffffffffffffffffffffff1663f23a6e6187878686866040518663ffffffff1660e01b8152600401611dc6959493929190613935565b6020604051808303816000875af1925050508015611e0257506040513d601f19601f82011682018060405250810190611dff9190613725565b60015b611ea757611e0e61375f565b806308c379a003611e6a5750611e22613781565b80611e2d5750611e6c565b806040517f08c379a0000000000000000000000000000000000000000000000000000000008152600401611e619190612240565b60405180910390fd5b505b6040517f08c379a0000000000000000000000000000000000000000000000000000000008152600401611e9e90613883565b60405180910390fd5b63f23a6e6160e01b7bffffffffffffffffffffffffffffffffffffffffffffffffffffffff1916817bffffffffffffffffffffffffffffffffffffffffffffffffffffffff191614611f2e576040517f08c379a0000000000000000000000000000000000000000000000000000000008152600401611f2590613915565b60405180910390fd5b505b505050505050565b6000808273ffffffffffffffffffffffffffffffffffffffff163b119050919050565b6000604051905090565b600080fd5b600080fd5b600073ffffffffffffffffffffffffffffffffffffffff82169050919050565b6000611f9a82611f6f565b9050919050565b611faa81611f8f565b8114611fb557600080fd5b50565b600081359050611fc781611fa1565b92915050565b6000819050919050565b611fe081611fcd565b8114611feb57600080fd5b50565b600081359050611ffd81611fd7565b92915050565b6000806040838503121561201a57612019611f65565b5b600061202885828601611fb8565b925050602061203985828601611fee565b9150509250929050565b600081519050919050565b600082825260208201905092915050565b60005b8381101561207d578082015181840152602081019050612062565b60008484015250505050565b6000601f19601f8301169050919050565b60006120a582612043565b6120af818561204e565b93506120bf81856020860161205f565b6120c881612089565b840191505092915050565b6120dc81611f8f565b82525050565b6120eb81611fcd565b82525050565b60008115159050919050565b612106816120f1565b82525050565b60006080820190508181036000830152612126818761209a565b905061213560208301866120d3565b61214260408301856120e2565b61214f60608301846120fd565b95945050505050565b600060208201905061216d60008301846120e2565b92915050565b60007fffffffff0000000000000000000000000000000000000000000000000000000082169050919050565b6121a881612173565b81146121b357600080fd5b50565b6000813590506121c58161219f565b92915050565b6000602082840312156121e1576121e0611f65565b5b60006121ef848285016121b6565b91505092915050565b600060208201905061220d60008301846120fd565b92915050565b60006020828403121561222957612228611f65565b5b600061223784828501611fee565b91505092915050565b6000602082019050818103600083015261225a818461209a565b905092915050565b600080fd5b7f4e487b7100000000000000000000000000000000000000000000000000000000600052604160045260246000fd5b61229f82612089565b810181811067ffffffffffffffff821117156122be576122bd612267565b5b80604052505050565b60006122d1611f5b565b90506122dd8282612296565b919050565b600067ffffffffffffffff8211156122fd576122fc612267565b5b602082029050602081019050919050565b600080fd5b6000612326612321846122e2565b6122c7565b905080838252602082019050602084028301858111156123495761234861230e565b5b835b81811015612372578061235e8882611fee565b84526020840193505060208101905061234b565b5050509392505050565b600082601f83011261239157612390612262565b5b81356123a1848260208601612313565b91505092915050565b600080fd5b600067ffffffffffffffff8211156123ca576123c9612267565b5b6123d382612089565b9050602081019050919050565b82818337600083830152505050565b60006124026123fd846123af565b6122c7565b90508281526020810184848401111561241e5761241d6123aa565b5b6124298482856123e0565b509392505050565b600082601f83011261244657612445612262565b5b81356124568482602086016123ef565b91505092915050565b600080600080600060a0868803121561247b5761247a611f65565b5b600061248988828901611fb8565b955050602061249a88828901611fb8565b945050604086013567ffffffffffffffff8111156124bb576124ba611f6a565b5b6124c78882890161237c565b935050606086013567ffffffffffffffff8111156124e8576124e7611f6a565b5b6124f48882890161237c565b925050608086013567ffffffffffffffff81111561251557612514611f6a565b5b61252188828901612431565b9150509295509295909350565b600067ffffffffffffffff82111561254957612548612267565b5b602082029050602081019050919050565b600061256d6125688461252e565b6122c7565b905080838252602082019050602084028301858111156125905761258f61230e565b5b835b818110156125b957806125a58882611fb8565b845260208401935050602081019050612592565b5050509392505050565b600082601f8301126125d8576125d7612262565b5b81356125e884826020860161255a565b91505092915050565b6000806040838503121561260857612607611f65565b5b600083013567ffffffffffffffff81111561262657612625611f6a565b5b612632858286016125c3565b925050602083013567ffffffffffffffff81111561265357612652611f6a565b5b61265f8582860161237c565b9150509250929050565b600081519050919050565b600082825260208201905092915050565b6000819050602082019050919050565b61269e81611fcd565b82525050565b60006126b08383612695565b60208301905092915050565b6000602082019050919050565b60006126d482612669565b6126de8185612674565b93506126e983612685565b8060005b8381101561271a57815161270188826126a4565b975061270c836126bc565b9250506001810190506126ed565b5085935050505092915050565b6000602082019050818103600083015261274181846126c9565b905092915050565b612752816120f1565b811461275d57600080fd5b50565b60008135905061276f81612749565b92915050565b6000806040838503121561278c5761278b611f65565b5b600061279a85828601611fb8565b92505060206127ab85828601612760565b9150509250929050565b600067ffffffffffffffff8211156127d0576127cf612267565b5b6127d982612089565b9050602081019050919050565b60006127f96127f4846127b5565b6122c7565b905082815260208101848484011115612815576128146123aa565b5b6128208482856123e0565b509392505050565b600082601f83011261283d5761283c612262565b5b813561284d8482602086016127e6565b91505092915050565b60006020828403121561286c5761286b611f65565b5b600082013567ffffffffffffffff81111561288a57612889611f6a565b5b61289684828501612828565b91505092915050565b6000602082840312156128b5576128b4611f65565b5b60006128c384828501611fb8565b91505092915050565b600081519050919050565b600082825260208201905092915050565b6000819050602082019050919050565b600082825260208201905092915050565b600061291482612043565b61291e81856128f8565b935061292e81856020860161205f565b61293781612089565b840191505092915050565b61294b81611f8f565b82525050565b61295a816120f1565b82525050565b6000608083016000830151848203600086015261297d8282612909565b91505060208301516129926020860182612942565b5060408301516129a56040860182612695565b5060608301516129b86060860182612951565b508091505092915050565b60006129cf8383612960565b905092915050565b6000602082019050919050565b60006129ef826128cc565b6129f981856128d7565b935083602082028501612a0b856128e8565b8060005b85811015612a475784840389528151612a2885826129c3565b9450612a33836129d7565b925060208a01995050600181019050612a0f565b50829750879550505050505092915050565b60006020820190508181036000830152612a7381846129e4565b905092915050565b60008060408385031215612a9257612a91611f65565b5b6000612aa085828601611fb8565b9250506020612ab185828601611fb8565b9150509250929050565b600080600080600060a08688031215612ad757612ad6611f65565b5b6000612ae588828901611fb8565b9550506020612af688828901611fb8565b9450506040612b0788828901611fee565b9350506060612b1888828901611fee565b925050608086013567ffffffffffffffff811115612b3957612b38611f6a565b5b612b4588828901612431565b9150509295509295909350565b7f4e487b7100000000000000000000000000000000000000000000000000000000600052602260045260246000fd5b60006002820490506001821680612b9957607f821691505b602082108103612bac57612bab612b52565b5b50919050565b7f455243313135353a2061646472657373207a65726f206973206e6f742061207660008201527f616c6964206f776e657200000000000000000000000000000000000000000000602082015250565b6000612c0e602a8361204e565b9150612c1982612bb2565b604082019050919050565b60006020820190508181036000830152612c3d81612c01565b9050919050565b7f455243313135353a2063616c6c6572206973206e6f7420746f6b656e206f776e60008201527f6572206e6f7220617070726f7665640000000000000000000000000000000000602082015250565b6000612ca0602f8361204e565b9150612cab82612c44565b604082019050919050565b60006020820190508181036000830152612ccf81612c93565b9050919050565b7f455243313135353a206163636f756e747320616e6420696473206c656e67746860008201527f206d69736d617463680000000000000000000000000000000000000000000000602082015250565b6000612d3260298361204e565b9150612d3d82612cd6565b604082019050919050565b60006020820190508181036000830152612d6181612d25565b9050919050565b7f4e487b7100000000000000000000000000000000000000000000000000000000600052603260045260246000fd5b7f4e487b7100000000000000000000000000000000000000000000000000000000600052601160045260246000fd5b6000612dd182611fcd565b91507fffffffffffffffffffffffffffffffffffffffffffffffffffffffffffffffff8203612e0357612e02612d97565b5b600182019050919050565b7f4d75737420626520616e206f776e6572206f6620746865207061636b00000000600082015250565b6000612e44601c8361204e565b9150612e4f82612e0e565b602082019050919050565b60006020820190508181036000830152612e7381612e37565b9050919050565b6000606082019050612e8f60008301866120e2565b612e9c60208301856120e2565b612ea960408301846120d3565b949350505050565b60008190508160005260206000209050919050565b60006020601f8301049050919050565b600082821b905092915050565b600060088302612f137fffffffffffffffffffffffffffffffffffffffffffffffffffffffffffffffff82612ed6565b612f1d8683612ed6565b95508019841693508086168417925050509392505050565b6000819050919050565b6000612f5a612f55612f5084611fcd565b612f35565b611fcd565b9050919050565b6000819050919050565b612f7483612f3f565b612f88612f8082612f61565b848454612ee3565b825550505050565b600090565b612f9d612f90565b612fa8818484612f6b565b505050565b5b81811015612fcc57612fc1600082612f95565b600181019050612fae565b5050565b601f82111561301157612fe281612eb1565b612feb84612ec6565b81016020851015612ffa578190505b61300e61300685612ec6565b830182612fad565b50505b505050565b600082821c905092915050565b600061303460001984600802613016565b1980831691505092915050565b600061304d8383613023565b9150826002028217905092915050565b61306682612043565b67ffffffffffffffff81111561307f5761307e612267565b5b6130898254612b81565b613094828285612fd0565b600060209050601f8311600181146130c757600084156130b5578287015190505b6130bf8582613041565b865550613127565b601f1984166130d586612eb1565b60005b828110156130fd578489015182556001820191506020850194506020810190506130d8565b8683101561311a5784890151613116601f891682613023565b8355505b6001600288020188555050505b505050505050565b60008154905061313e81612b81565b9050919050565b81810361315357505061322b565b61315c8261312f565b67ffffffffffffffff81111561317557613174612267565b5b61317f8254612b81565b61318a828285612fd0565b6000601f8311600181146131b957600084156131a7578287015490505b6131b18582613041565b865550613224565b601f1984166131c787612eb1565b96506131d286612eb1565b60005b828110156131fa578489015482556001820191506001850194506020810190506131d5565b868310156132175784890154613213601f891682613023565b8355505b6001600288020188555050505b5050505050505b565b7f455243313135353a2063616c6c6572206d757374206265207468652067726f7560008201527f70206f776e657220666f72207061636b206f66207468652072656c6174696f6e60208201527f7368697020496400000000000000000000000000000000000000000000000000604082015250565b60006132af60478361204e565b91506132ba8261322d565b606082019050919050565b600060208201905081810360008301526132de816132a2565b9050919050565b7f455243313135353a2069647320616e6420616d6f756e7473206c656e6774682060008201527f6d69736d61746368000000000000000000000000000000000000000000000000602082015250565b600061334160288361204e565b915061334c826132e5565b604082019050919050565b6000602082019050818103600083015261337081613334565b9050919050565b7f455243313135353a207472616e7366657220746f20746865207a65726f20616460008201527f6472657373000000000000000000000000000000000000000000000000000000602082015250565b60006133d360258361204e565b91506133de82613377565b604082019050919050565b60006020820190508181036000830152613402816133c6565b9050919050565b7f455243313135353a20696e73756666696369656e742062616c616e636520666f60008201527f72207472616e7366657200000000000000000000000000000000000000000000602082015250565b6000613465602a8361204e565b915061347082613409565b604082019050919050565b6000602082019050818103600083015261349481613458565b9050919050565b60006134a682611fcd565b91506134b183611fcd565b92508282019050808211156134c9576134c8612d97565b5b92915050565b600060408201905081810360008301526134e981856126c9565b905081810360208301526134fd81846126c9565b90509392505050565b7f455243313135353a206d696e7420746f20746865207a65726f2061646472657360008201527f7300000000000000000000000000000000000000000000000000000000000000602082015250565b600061356260218361204e565b915061356d82613506565b604082019050919050565b6000602082019050818103600083015261359181613555565b9050919050565b60006040820190506135ad60008301856120e2565b6135ba60208301846120e2565b9392505050565b7f455243313135353a2073657474696e6720617070726f76616c2073746174757360008201527f20666f722073656c660000000000000000000000000000000000000000000000602082015250565b600061361d60298361204e565b9150613628826135c1565b604082019050919050565b6000602082019050818103600083015261364c81613610565b9050919050565b600081519050919050565b600082825260208201905092915050565b600061367a82613653565b613684818561365e565b935061369481856020860161205f565b61369d81612089565b840191505092915050565b600060a0820190506136bd60008301886120d3565b6136ca60208301876120d3565b81810360408301526136dc81866126c9565b905081810360608301526136f081856126c9565b90508181036080830152613704818461366f565b90509695505050505050565b60008151905061371f8161219f565b92915050565b60006020828403121561373b5761373a611f65565b5b600061374984828501613710565b91505092915050565b60008160e01c9050919050565b600060033d111561377e5760046000803e61377b600051613752565b90505b90565b600060443d1061380e57613793611f5b565b60043d036004823e80513d602482011167ffffffffffffffff821117156137bb57505061380e565b808201805167ffffffffffffffff8111156137d9575050505061380e565b80602083010160043d0385018111156137f657505050505061380e565b61380582602001850186612296565b82955050505050505b90565b7f455243313135353a207472616e7366657220746f206e6f6e204552433131353560008201527f526563656976657220696d706c656d656e746572000000000000000000000000602082015250565b600061386d60348361204e565b915061387882613811565b604082019050919050565b6000602082019050818103600083015261389c81613860565b9050919050565b7f455243313135353a204552433131353552656365697665722072656a6563746560008201527f6420746f6b656e73000000000000000000000000000000000000000000000000602082015250565b60006138ff60288361204e565b915061390a826138a3565b604082019050919050565b6000602082019050818103600083015261392e816138f2565b9050919050565b600060a08201905061394a60008301886120d3565b61395760208301876120d3565b61396460408301866120e2565b61397160608301856120e2565b8181036080830152613983818461366f565b9050969550505050505056fea26469706673582212201b684ad6ea527515d2525f2513b5ed4bc1c07738ee2cc1abd9135a49bafec3ed64736f6c6343000811003368747470733a2f2f73746f726167652e676f6f676c65617069732e636f6d2f656e67726176652d6e6674732f7b69647d2e6a736f6e",
  "immutableReferences": {},
  "source": "// contracts/GameItems.sol\n// SPDX-License-Identifier: MIT\npragma solidity ^0.8.0;\n\nimport \"@openzeppelin/contracts/token/ERC1155/ERC1155.sol\";\nimport \"@openzeppelin/contracts/utils/Counters.sol\";\n\ncontract EngraveNFT1155 is ERC1155 {\n    using Counters for Counters.Counter;\n    // unique relationship between group and account being issued\n    Counters.Counter private _relationshipIds;\n    Counters.Counter private _packIds;\n\n    constructor()ERC1155(\"https://storage.googleapis.com/engrave-nfts/{id}.json\") {\n    }\n\n    struct packProperties {\n        string name_;\n        address owner;\n        uint _packId;\n        bool active;\n    }\n\n\n    mapping(uint => packProperties) public packs;\n    mapping(address => packProperties[]) public OwnerPackIds;\n    mapping(address => mapping(uint256 => uint)) public Relationships;\n\n    event NewPack(uint packId); \n    event NewRelationship(uint relationshipId, uint packId, address reciever);\n\n    /**\n     * Allows anyone to become an owner of a pack. \n     * A person can own multipe packs. \n     * Pack Ids are unique\n     * Emits the newly created group id\n     */\n    function createPack(string memory name_) public {\n        // start a group in storage, based on packId\n        packProperties storage newPack = packs[_packIds.current()];\n        //also save in map\n        newPack._packId =  _packIds.current();\n        // mark group as active\n        newPack.active = true;  \n        //assign group owner and name\n        newPack.owner = msg.sender;\n        newPack.name_ = name_;\n        // store the storage in map\n        packs[_packIds.current()] = newPack;\n        // add to struct\n        OwnerPackIds[msg.sender].push(newPack);\n        _packIds.increment();\n\n        // returns pack id, to be used for indexing the beginning\n        emit NewPack(newPack._packId);\n    }\n\n    /**\n     * Allows an owner to engrave a relationship with another address\n     * \n     * Emits the id of the relationship\n     */\n    function engraveToPack(address to, uint packId) public {\n\n        // assumes no one could have vitaliks acocunt?\n        require(packs[packId].owner == msg.sender, \"Must be an owner of the pack\");\n        // each token represents a relationship, with a unique id that represents the relationship\n        uint256 newRelationship = _relationshipIds.current();\n\n        // reciever address -> relationship Id ->  packId\n        mapping(uint256 => uint) storage relToPack = Relationships[to];\n        relToPack[newRelationship] = packId;\n        _mint(to, newRelationship, 1, \"\");\n        // save the token uri, along with a stamp\n        // increment relationship id for next relationship\n        _relationshipIds.increment();\n        emit NewRelationship(newRelationship, packId, to);\n\n    }\n\n    /**\n     * @dev See {IERC1155-safeTransferFrom}.\n     * An engraver can end a relationship or transfer a relationship\n     * from represents the group the token is from\n     * to represents the address where the relationship will be sent to\n     * id represents the _relationshipId\n     * amount will always be 1, since its non fungible\n     *\n     */\n    function safeTransferFrom(\n        address from,\n        address to,\n        uint256 id,\n        uint256 amount,\n        bytes memory data\n    ) public virtual override {\n        // retrieve packId from relationships\n        uint retrievedPackId = Relationships[from][id];\n        require(\n            packs[retrievedPackId].owner == msg.sender, \n            \"ERC1155: caller must be the group owner for pack of the relationship Id\"\n        );\n         Relationships[to][id] = retrievedPackId;\n         //remove person from the pack and add them to the zero list. fowl players\n         Relationships[from][id] = 0;\n        \n        _safeTransferFrom(from, to, id, amount, data);\n    }\n\n    function getOwnerPackIds(address ownerAddress) public view returns (packProperties[] memory){\n        return OwnerPackIds[ownerAddress];\n    }\n    \n}   ",
  "sourcePath": "/Users/connorbovino/Documents/EngraveNFT1155-truffle/contracts/EngraveNFT1155.sol",
  "compiler": {
    "name": "solc",
    "version": "0.8.17+commit.8df45f5f.Emscripten.clang"
  },
  "schemaVersion": "3.4.10",
  "updatedAt": "2022-10-04T14:58:54.017Z",
  "networkType": "ethereum",
  "devdoc": {
    "kind": "dev",
    "methods": {
      "balanceOf(address,uint256)": {
        "details": "See {IERC1155-balanceOf}. Requirements: - `account` cannot be the zero address."
      },
      "balanceOfBatch(address[],uint256[])": {
        "details": "See {IERC1155-balanceOfBatch}. Requirements: - `accounts` and `ids` must have the same length."
      },
      "isApprovedForAll(address,address)": {
        "details": "See {IERC1155-isApprovedForAll}."
      },
      "safeBatchTransferFrom(address,address,uint256[],uint256[],bytes)": {
        "details": "See {IERC1155-safeBatchTransferFrom}."
      },
      "safeTransferFrom(address,address,uint256,uint256,bytes)": {
        "details": "See {IERC1155-safeTransferFrom}. An engraver can end a relationship or transfer a relationship from represents the group the token is from to represents the address where the relationship will be sent to id represents the _relationshipId amount will always be 1, since its non fungible"
      },
      "setApprovalForAll(address,bool)": {
        "details": "See {IERC1155-setApprovalForAll}."
      },
      "supportsInterface(bytes4)": {
        "details": "See {IERC165-supportsInterface}."
      },
      "uri(uint256)": {
        "details": "See {IERC1155MetadataURI-uri}. This implementation returns the same URI for *all* token types. It relies on the token type ID substitution mechanism https://eips.ethereum.org/EIPS/eip-1155#metadata[defined in the EIP]. Clients calling this function must replace the `\\{id\\}` substring with the actual token type ID."
      }
    },
    "version": 1
  },
  "userdoc": {
    "kind": "user",
    "methods": {
      "createPack(string)": {
        "notice": "Allows anyone to become an owner of a pack.  A person can own multipe packs.  Pack Ids are unique Emits the newly created group id"
      },
      "engraveToPack(address,uint256)": {
        "notice": "Allows an owner to engrave a relationship with another address  Emits the id of the relationship"
      }
    },
    "version": 1
  }
}